:020000040800F2
:10000000F00D0020C91F0008B51E0008B71E00082B
:10001000B91E0008BB1E0008BD1E0008000000003D
:10002000000000000000000000000000BF1E0008EB
:10003000C11E000800000000C31E0008C51E000805
:10004000092000080D2000081120000815200008D4
:10005000192000081D200008212000082520000884
:10006000292000082D200008312000083520000834
:10007000392000083D2000084120000845200008E4
:10008000492000084D200008512000085520000894
:10009000C71E00085D2000086120000865200008D8
:1000A000692000086D2000087120000875200008F4
:1000B000792000087D2000088120000885200008A4
:1000C000892000088D200008912000089520000854
:1000D00099200008CB1E0008A1200008A5200008D8
:1000E000A9200008AD200008F91E000810B5DFF8AF
:1000F000884700B92BE000F099F800688047206835
:100100000A3010BD80B5DFF87007DFF8702700688F
:100110005278C1788A420CD38278002A04BF828840
:10012000002A06D1817200F081F8406880470020E3
:1001300002BD022002BD10B5DFF83C4700B906E061
:1001400000F074F88068804720680C3010BD20688B
:1001500001210182002010BD10B5DFF81C47DFF837
:10016000202720681268C1784079926990472168F9
:100170008A7A92B1002804BF087900280DD18878C6
:1001800058B900F053F8C068804720684179C172BF
:100190002068C1780173002010BD022010BD1CB57D
:1001A000DFF8D416096810B9022008823CE0DFF8B5
:1001B000D44600202080002208787F23184215D1E1
:1001C000487A81064CBF42F0020102F0FD01217025
:1001D0004006217854BF01F0FE0041F0010020707C
:1001E00000F024F800698047204616BD00F07F0328
:1001F000012BF9D000F07F00022815D14879DFF8F3
:10020000883600F00F01000653F8210042F0010289
:1002100005D500F030001028E2D12270E0E700F4AC
:100220004050B0F5805FF7E7002016BDDFF85C06B0
:1002300000687047F8B5DFF840060068017811F0F3
:100240007F0104D1417A01F0DF0141724FE00229C0
:1002500001BF41880029017900294AD14179DFF89D
:10026000284621F080050A0654F825204CBF02F0EC
:10027000300202F44052DFF804361B789D4238D237
:10028000002A1CBF807A002833D0080654F82500C5
:100290000BD500F03000102825D1284600F098FB3F
:1002A0003021284600F033FB1DE000F44050B0F54B
:1002B000805F18D148F280064BF68F7745B900F081
:1002C000B4FA2068384080F44050304320600AE09F
:1002D000284600F06BFB54F82500384080F440506D
:1002E000304344F82500FFF7A1FF40698047002014
:1002F000F2BD0220F2BD38B5DFF87C05DFF88815C5
:100300000268537923F080001C0651F820404CBF4E
:1003100004F0300404F44054DFF860552D78A8420E
:1003200006D2558825B9002C1CBF927A002A01D12B
:10033000022032BD1B0651F8203048F2800205D55C
:1003400048F6BF74234083F0100304E04BF68F742B
:10035000234083F480531A4341F82020FFF766FFBF
:1003600080698047002032BD80B5DFF80C05006849
:10037000417A41F020014172FFF758FFC069804780
:10038000002002BDDFF8F0241268538A20B9888863
:10039000C01A1082002070470868181870472DE9AD
:1003A000F843DFF8D444DFF8E854206800F1100681
:1003B0003188002904BF007A042816D1DFF8D4045C
:1003C000017801290DD1DFF8D014DFF8D0240968B5
:1003D00089B2002342F811303021298004270370AC
:1003E0002CE010200727288028E0B6F804808845F4
:1003F00005D30427414588BF4146884600E00227CF
:10040000B168404688478146002000F0FAFA01466C
:100410004246484600F053FB4146002000F0F9FAFE
:100420003088A0EB080030804FF440517088404481
:10043000708030202880DFF868040180206807720F
:10044000BDE8F18338B5DFF830442068457801789D
:100450007F22114238D1092D02D1FFF753FE47E028
:10046000052D1BD1C178802950DA8178002901BF80
:1004700081880029807A002848D1DFF81C14DFF831
:100480001C24096889B2002342F811300620DFF8E5
:10049000001430220A802168087231BD032D08D172
:1004A000C178012904BF8088002823D1FFF75CFFB1
:1004B0001EE0012D04BFC17801291BD18188C9B973
:1004C000407A80060DD415E001F07F00012804D1A8
:1004D0000B2D0FD1FFF740FE0AE002280AD1012DB3
:1004E00002D1FFF7A7FE03E0032D03D1FFF703FFBF
:1004F0000028C2D0DFF88813096849692846884770
:10050000032808BF0920C6D00028B6D00820C2E7BB
:1005100030B5DFF86453DFF86843286883B041786A
:10052000062913D101787F2211422AD1807801282F
:1005300002D12068C1696AE0022802D12068016AFC
:1005400065E003281DD12068416A60E000293FD1A1
:100550004188002904BFC188022912D1017981B9DB
:1005600001787F22114204BF8288002A2ED001F038
:100570007F02012A10D100F08CF810B92868807A27
:1005800020BB28682168407809698847032847D13B
:1005900028680921017237BD01F07F010229F0D1DD
:1005A0004079B94B00F00F0100F07002000653F8DB
:1005B00021004CBF00F0300000F44050AF4B1B78DE
:1005C0009942DED2002ADCD10028DAD0B5491EE0FB
:1005D000082905D100787F210842D2D1B24916E01E
:1005E0000A2902BF017801F07F010129C9D1817A6E
:1005F0000029C6D04188002901BF01790029C1889E
:100600000129BED100F045F80028BAD1A749080059
:10061000B7D02868002242828161002088470020EC
:1006200029680B8A1A464FF6FF75AA4208BF0920AF
:1006300004D0022818BF002B02D10820087237BD51
:10064000087800061ED5C88800902468009D9D4249
:1006500002D2009808820FE083420DD294F82C0059
:100660008C4D834238BF002005D392FBF0F300FB92
:10067000132008B90120287094F82C008882BDE866
:1006800037408CE6032008724FF4405184480180C3
:1006900037BD2268407992690021104738B57E48FD
:1006A00083490068744C80B231F8100021680A7ADE
:1006B000400000F1804000F5C040092A14D010F835
:1006C000012B0A70216810F8012B4A70851C35F83F
:1006D000040B00F0EFF921684880288800F0EAF95F
:1006E00021688880A888C88001212068017220685C
:1006F000C08810B9FFF7A6FE01E0FFF709FFBDE8CB
:1007000031407CE010B500F096F818BF042904D100
:10071000FFF745FE2068007A14E0062911D14178E0
:10072000052902BF01787F22114206D1C07800F06E
:1007300087F8FFF77BFD006A8047514800688068B2
:100740008047082021680872BDE8104057E0F8B5DE
:1007500000F071F818BF04294CD0032918BF0529EF
:1007600042D100F11005A9682E88080018BF002E9C
:1007700014D0A888864288BF064630468847074678
:100780002888801B2880688830186880002000F046
:1007900039F901463246384600F0A6F928883C4E21
:1007A00048B13F484FF4405101800020002100F043
:1007B00030F9302030802888AA882168904228BFEC
:1007C000032001D210B1052008720AE00620087249
:1007D000002231483149006880B241F810203020B1
:1007E00030802068007A06E0072903D12448006899
:1007F000C0688047082021680872BDE8F14080B5D4
:1008000000F013F81C480068017A082906D1244931
:100810004FF480520A8010221D490A80007A09286C
:1008200001D1012002BD002002BD224890F82C1009
:10083000002000F0F5B8104C2068017A02297047BA
:1008400070B50E49104B0978002248F68F760BE000
:10085000D4B253F824503540254345F4004545F0C3
:10086000800543F82450521C8A42F1D3124940F0CB
:100870008000086070BD0000700900200C0100209D
:1008800074090020D8090020005C0040780900208D
:10089000E2090020EA090020505C004004600040AA
:1008A000E00900209F010008ED0000083701000862
:1008B00008600040000000204C5C0040704710B40D
:1008C00050F8041B81B102681218001D50F8043B57
:1008D000DC0744BFA9F10104E31852F8044B43F8C4
:1008E000044B091FF9D1EBE710BC70474FF6F871C4
:1008F0000840DFF8A8110860704710B5DFF8A021A4
:1009000052F8203048F68F142340194324E010B5E4
:10091000DFF88C2152F8203048F6BF742340CC0613
:1009200048BF83F01003890648BF83F020030FE01F
:1009300010B5DFF86C2152F820304BF68F7423404D
:10094000CC0448BF83F48053890448BF83F4005328
:1009500043F4004141F0800142F8201010BDDFF85F
:10096000401151F8202048F6BF731A4082F030023F
:1009700042F4004215E0DFF8281151F820204BF630
:100980008F731A4082F4405242F4004209E0DFF8CB
:10099000101151F8202048F68F631A4042F40042AB
:1009A000FFE742F0800241F820207047DFF8F010A6
:1009B00051F8202052040AD551F8202048F68F73B0
:1009C0001A4042F4404242F0800241F82020704731
:1009D000334951F8202052060AD551F8202048F614
:1009E0008F731A4042F4004242F0C00241F82020C6
:1009F000704738E0294A126892B202EBC000294AD7
:100A000037E03BE02549096889B201EBC000254980
:100A10003AE0224A126892B202EBC000224A2AE06F
:100A20001E4A126892B202EBC000204A02EB40005C
:100A30003F2909DB4A091F23194208BF521E12042D
:100A4000910941F4004105E04A08C90748BF521C1A
:100A500012049109016070471049096889B201EBDD
:100A6000C000124914E00D4A126892B202EBC000B5
:100A70000F4A4908490042F81010704707490968B1
:100A800089B201EBC0000A4951F8100080B27047EA
:100A900051F810008005800D70470000505C004048
:100AA000005C004008600040046000400C600040B2
:100AB000006000400106090C41EA1020704710B5A3
:100AC000490001F18041521C01F5C041521009E07A
:100AD00010F8013B10F8014B43EA042321F8023BD4
:100AE000891C521EF4D110BD490001F18041521CF5
:100AF00001F5C041521004E051F8043B20F8023BDC
:100B0000521EF9D1704750F8041B61B150F8042B04
:100B1000D30744BFA9F101039A18002342F8043B0C
:100B2000091FFAD1EFE7704780B50121202000F0BE
:100B300045FB00F0CBFA03208DF8020014208DF85D
:100B40000300DFF8C00500F059FB4FF4802000F0EF
:100B500013FCDFF8B4054FF48021016008214171D6
:100B60000121817100F0D6FB01BD80B5002000F0AD
:100B7000E7FABDE8044001214FF4000000F027BB74
:100B8000DFF88C15DFF88405897A002914BF052168
:100B90000121016000F0F8BB80B54FF4A06000F0C7
:100BA00069FC14208DF8000002208DF8010000205F
:100BB0008DF8020001208DF8030000A800F05FFC12
:100BC0002A208DF80000002000F007F825208DF87D
:100BD0000000012000F001F801BD8DF8010000A81F
:100BE00000F04DBCDFF81C2500284FF400711046C2
:100BF00018BF00F062BB00F05EBB80B5DFF81415D3
:100C00004FF416500860002048604FF4C06008811F
:100C100000F03EF8BDE80840012240F22551DFF81F
:100C2000F80400F0BBBC80B5DFF8F004017919B11D
:100C3000022906D002D327E0002204E04FF44052FC
:100C400001E04FF40052DFF8CC14CA8042793AB187
:100C5000022A03D018D24FF4806201E04FF4C06240
:100C60000A818279072A02D0082A02D00CE00022E9
:100C700003E00A890AB14FF48052006808608A8054
:100C800000F006F8012002BDFFF7B7FF002002BD0B
:100C9000002088810C204881002000F0C5BCDFF8CE
:100CA00080040178012900D1704710B58168B1F541
:100CB000006F04BF00218160416882688A4202D1CE
:100CC0000021017010BD914234BFC2F50061891A44
:100CD0004129134603D340244032403902E00C46F8
:100CE0008A180021C1608260012101709BB2DFF887
:100CF0003404A2B2C0211818FFF7E1FEA1B201200E
:100D0000FFF787FEBDE810400120FFF728BE38B589
:100D1000DFF80804DFF808448179DFF80854DFF8C9
:100D2000F803072905D100F055FC616800F07F0049
:100D300004E0082903D100F04DFC61684855606863
:100D4000401CB0F5006F08BF0020606031BD38B5B1
:100D5000DFF8D40344680168806840180CD0DFF8DD
:100D6000CC530822A91C00F008F805F11201204616
:100D7000BDE83840042200E031BD30B50023002535
:100D800006E001F81340000101EB43045B1C6570B1
:100D9000934205DA040F0A2C34BF30343734F0E7BD
:100DA00030BD38B504460121052000F007FAE048BF
:100DB000E04D00F067F84FF44040ADF8000000A9A6
:100DC000102000F07DF9284600F018FA14F0030412
:100DD00003D14FF4404100F070F9012C06D14FF4DB
:100DE000004100F06AF94FF480410EE0022C08D176
:100DF0004FF4004100F05EF94FF4804100F05DF9DE
:100E000031BD032C03D14FF4404100F053F931BD03
:100E1000704781B0002807E00099491C00910099B3
:100E2000B1F5FA5FF8D3401E18BF0021F6D101B02A
:100E3000704710B582B001211D2000F0BFF9BC48F9
:100E4000BC4C00F01FF841F6014000F04FF800F0F4
:100E50004AF84EF2FE3000F053F846F6407000F0CB
:100E600017F8B54C00F03FF849F2BF0000F048F821
:100E700041F6FF7000F00CF8B04C00F034F84FF47D
:100E800060402DE0002101604FF0806141607047BB
:100E9000ADF8000048208DF8030002208DF8020014
:100EA00000A9704710B582B001211D2000F086F91D
:100EB0009F48FFF7E7FF4FF6FF7000F017F89E48D6
:100EC00000F09CF99D4800A900F098F94FF6FF50FA
:100ED000ADF8000000A9974C00F005F84FF4007041
:100EE00000F00EF813BD204600F088B9ADF8000000
:100EF00000A948208DF8030002208DF802007047F9
:100F0000ADF8000000A910208DF8030002208DF834
:100F10000200204600F072B92DE9F84F00260024A7
:100F2000DFF81892844DDFF80CB24AF2AA2A44F294
:100F3000541804E0FFF7B6FF2D20FFF76AFFFFF714
:100F400078FFE0074146584618D400F0B4F95146FE
:100F5000584600F0B2F941F2150100F0ABF848F242
:100F6000AA0100F0AAF84FF48041484600F0A3F926
:100F70004FF42041484600F0A0F917E000F09DF939
:100F80005146584600F097F941F2150100F095F8E6
:100F900048F2AA0100F08EF84FF48041484600F074
:100FA0008CF94FF42041484600F085F9012158465C
:100FB00000F081F9DBF80C0080064FF40051284660
:100FC00002D500F078F901E000F077F9E868000652
:100FD0004FF47061284602D500F06DF901E000F091
:100FE0006CF9E868C0044FF48041284602D500F04F
:100FF00062F901E000F061F9E868800603D540215C
:1010000000F058F802E0402100F057F8641C052079
:10101000FFF7FFFEDBF80810DBF80C00AA68EB68AE
:10102000D9F8087007F4604CD9F80C7007F4604EDA
:101030004EF2FF373940384092B29BB2814218BF1E
:10104000761C9A4218BF761CF44518BF761C0C2CEF
:10105000FFF470AF16B94FF4C8706EE7FFF722FFC8
:10106000E00713D564270120FFF7D3FE4FF400718A
:10107000584600F022F90120FFF7CBFE4FF4007133
:10108000584600F018F97F1EEDD158E7A0074FF43D
:101090000071584602D500F010F901E000F00BF99C
:1010A00000F014F8042000F00BF8584600F0A6F801
:1010B000C82042E7284600F0FEB8284600F0FDB8F8
:1010C0008DF8030002208DF8020070474FF4007085
:1010D000ADF8000000A970477047F8B504460D460A
:1010E00000260D4F0AE0315D384600F06FFA80218E
:1010F000384600F073FA0028F9D0761CAE42F2D3DD
:10110000F1BD000000140140C8090020E4090020DE
:10111000540900209C09002000380140F400002000
:10112000AC09002014010020E8F7FF1F7400002024
:101130000000014000080140000C01400010014087
:1011400028490860704730B52549274B0A6802F0E6
:101150000C02082A0ED10A680C68244DC2F383429F
:10116000921C5543E40302D50C68A40301D52B4619
:1011700000E0534303601E4A0B680468C3F3031383
:101180009B5C24FA03F343600B684468C3F30223B7
:101190009B5C24FA03F383600B684468C3F3C223A7
:1011A0009B5C24FA03F3C3600968C368C1F381310F
:1011B0008918097CB3FBF1F1016130BD0D4A0029AA
:1011C000116814BF084321EA0000106070470A4A02
:1011D0000029116814BF084321EA0000106070471D
:1011E00004100240D800424200127A0000093D007B
:1011F000E0000020181002401C1002402DE9F041D0
:10120000CC78002204F00F03E40644BF8C7823431B
:101210000C8801250F26E7B217B3D0F800C005FAF5
:1012200002F7BE460EEA0408F04514D14FEA820EDA
:1012300006FA0EF82CEA080C03FA0EFE4EEA0C0C25
:1012400091F803E0BEF1280F08BF476103D0BEF15B
:10125000480F08BF0761521C082AE0D3C0F800C03D
:10126000FF2C26DDD0F804C0002202F1080705FAA1
:1012700007F7BE460EEA0408F04515D14FEA820E84
:1012800006FA0EF82CEA080C03FA0EFE4EEA0C0CD5
:1012900091F803E0BEF1280F08BF476191F803E021
:1012A000BEF1480F08BF0761521C082ADDD3C0F801
:1012B00004C0BDE8F081016170474161704770B5BD
:1012C000134A00284CBF94691468460D83B2360156
:1012D000B34000F44016C0F30345B6F5401F06D1F5
:1012E000156825F0706524F07064156008E0C6028A
:1012F00043BF032606FA05F5AC439C4344F07064F3
:1013000001B11C43002801D5946170BD146070BD0B
:101310000400014030B501688279CB4318492AB3F3
:101320000A4614682340136053680468A34353605B
:101330000379CC18236805682B43236093680468FD
:10134000A3439360D3680468A343D36043790568DB
:10135000102B07D1916829439160D1680068084338
:10136000D06030BDCC182068284303E000790C1809
:1013700020681840206030BD00BF024908607047F7
:1013800000040140140401403548364A82B0016827
:1013900041F001010160416811404160324A016839
:1013A00011400160016821F480210160416821F44D
:1013B000FE0141604FF41F01816000210191009105
:1013C000016841F480310160016801F4003100914D
:1013D0000199491C0191009919B90199B1F5A06FC2
:1013E000F2D10168490C01F0010100910099012935
:1013F00030D11E490A6842F010020A600A68920859
:1014000092000A600A6842F002020A604168416084
:1014100041684160416841F480614160416821F464
:101420007C114160416841F4E8114160016841F07C
:101430008071016001688901FCD5416889088900D3
:101440004160416841F002014160416801F00C01D6
:101450000829FAD14FF000610548016002B07047D9
:10146000001002400000FFF8FFFFF6FE00200240DF
:1014700008ED00E01849084318490860704770B546
:101480000378C4781A460121ECB1144B1B684478E8
:1014900003F4E063C3F5E0631B0AC3F10405AC4049
:1014A00085780F2626FA03F32B4023430C4C1B01AF
:1014B000135500780B4B420900F01F0001FA00F0B1
:1014C00043F8220070BD5009074A03F01F039940FA
:1014D00042F8201070BD00000000FA050CED00E09D
:1014E00000E400E000E100E080E100E030B5044607
:1014F00085B00D46208A4CF6FF710840E988084304
:1015000020824EF6F311A0890840A9880843298952
:10151000084369890843A0814FF6FF41A08A08402B
:10152000A9890843A08200A8FFF70DFE1548844250
:101530000CBF03980298296819225043A28912040B
:101540004CBF49008900B0FBF1F16420B1FBF0F021
:1015500000010209642303FB1211A289120406D5BB
:10156000C9003231B1FBF3F101F0070105E00901D7
:101570003231B1FBF3F101F00F010843208105B0D6
:1015800030BD0000003801400029818912BF41F4BC
:1015900000514DF6FF7211408181704710B50B0666
:1015A0005B0F012401F01F0104FA01F1012B08BFB8
:1015B0000C3003D0022B0CBF10301430002A02680C
:1015C00014BF114322EA0101016010BDC905C90D14
:1015D000818070478088C005C00D70470088002258
:1015E000084218BF01221046704730B50A4613065C
:1015F00000215B0F012402F01F0504FA05F5012B01
:1016000008BF838903D0022B0CBF038A838A120A86
:10161000008804FA02F22B401040002B1CBF002867
:101620000121084630BD0000F8B506460FF2A400BF
:101630000FF2A802354650F8250052F825200C4636
:101640001043012140F00100FFF7B8FD2EB9012140
:101650004FF48040FFF7B2FD0AE001210820FFF7B8
:101660002EFE0FF2680050F825000121FFF7AFFDB4
:1016700018208DF8030000A90FF26800124E30F810
:101680001500ADF8000006EB850703208DF8020079
:10169000B868FFF7B3FD04208DF8030000A90FF22E
:1016A000480030F81500ADF800003869FFF7A6FDD6
:1016B00056F825002146FFF719FF56F825000121AD
:1016C000FFF762FFF1BD0000C800002000400000ED
:1016D00000000200040000002000000004000000E0
:1016E00020000000000220000004400080B5FFF749
:1016F0002EFB7D4800680021817200F009F900F09E
:10170000C9F9FFF77AFA00217848016001BD80B578
:101710007548016800228A72754A0168D2794A7256
:1017200000210068C1720020FFF7E0F84FF400715B
:101730000020FFF7E2F810210020FFF7E8F8402131
:101740000020FFF757F980210020FFF752F9002011
:10175000FFF71DF9674890F82C100020FFF760F99B
:101760000020FFF708F900210120FFF7C6F8C0218B
:101770000120FFF73EF920210120FFF7C8F80021E2
:101780000120FFF7D5F84FF4C0610220FFF7B5F84C
:101790004FF480710220FFF72CF900210220FFF79F
:1017A000C7F820210220FFF7B2F800210320FFF73D
:1017B000A4F84FF488710320FFF71CF9402103209F
:1017C000FFF72EF94FF440510320FFF7B1F8002145
:1017D0000320FFF79CF80020FFF732F8434801216F
:1017E000016001BD4448807A10B140480521016084
:1017F00070473E4804210160704710B53F4C207887
:10180000202803D1FFF70FFA0020207010BD704789
:1018100080B5212809D134480068007800F07F00A5
:10182000212815D10FF2A50110E0202810D12E4952
:1018300032480968097801F07F01212902D020216E
:10184000017005E020220FF28D010270080001D125
:10185000022002BD002224480068816142820020EB
:101860008847002002BD80B51F4909680A7802F048
:101870007F02212A0ED102280AD0222803D1C8785B
:10188000FFF78FFA04E0232804D14888FFF7C0FA55
:10189000002002BD022002BD1949FEF773BD19499F
:1018A000FEF770BD10490968C978052901DB0020E1
:1018B0007047154A02EBC101FEF764BD09B9022861
:1018C00001DB0220704700207047000000B905E0EE
:1018D00002E0000000B901E00C48704702480068CF
:1018E000082101820020704770090020E4090020CF
:1018F000101E00080000002054090020EC09002000
:10190000FC0000200401002054000020F40000200E
:1019100080B50120FFF766F95748584A0121016058
:101920000021016041604FF4E0511180016000200E
:1019300002BD38B5002350485149524A009304680B
:1019400052F82350ADB241F823505B1C082BF7D35B
:1019500044F480639BB203604FF6FE7443F00103CE
:1019600003602340036044686405FCD54FF6FF34F0
:101970004460002451F82450ADB242F82450641C55
:10198000082CF7D343F008010160016841F004011D
:1019900089B201603C490A6800920A689208920084
:1019A00042F001020A60394A136843F004031360ED
:1019B0004368DB0458BF30BF09D54EF6FF73436060
:1019C0004FF6F774036823400360009808601068BE
:1019D00020F00400106031BD10B5274C20684FF690
:1019E000FB7108402060FFF7CBF84FF43F402060C8
:1019F00010BD000010B5264C072818BF20702178B4
:101A00001D48052935D8DFE801F0030A10141B250D
:101A1000606810B9FFF7E0FF2BE005202AE0FFF730
:101A2000DBFF04202070012021E0022060700320F1
:101A300020E06078401E60706078E0B9042019E012
:101A4000016841F0100189B20160052020700A2070
:101A5000607010BD6178491E6170617859B9016884
:101A60004FF6EF7211400160062020700020606088
:101A700010BD0620207010BD405C0040E809002029
:101A80007C090020005C00400070004010ED00E088
:101A9000D00900200448054A002141604FF43F412D
:101AA0001180016000207047405C0040E809002080
:101AB00070B500F07F050C462846FEF7CDFF0646C0
:101AC0002846FEF79FFF014632462046FFF70CF8F6
:101AD000304670BD2DE9F84F0020ADF8000048F207
:101AE0008004464D464EDFF81C91DFF81CA148F6F5
:101AF0000F7840F68F7B4BF6BF7725E056F8201025
:101B0000ADF80010BDF8001009040BD556F82010F0
:101B10000BEA010146F820103C4901EB800050F827
:101B2000040C8047BDF8000000060DD599F80000B0
:101B300056F8201008EA010146F82010344901EB5C
:101B4000800050F8040C8047706CAAF80000000474
:101B500052D5BAF8000010F00F0089F80000CDD17E
:101B600030682880288800F030006880288800F4D9
:101B7000405028803068384080F4005080F02000C9
:101B800020433060BAF80000C006306805D408EA87
:101B900000003060FEF7B6FD16E0ADF80000BDF8BD
:101BA0000000000506D530680BEA00003060FEF743
:101BB00075FD09E0BDF800000004C5D530680BEAEA
:101BC00000003060FEF7C3FD306829883840C90442
:101BD00048BF80F480502988890448BF80F40050B1
:101BE0006988C90648BF80F010006988890648BF27
:101BF00080F0200020433060BDE8F18FE009002034
:101C0000005C0040EB090020BE090020AC00002071
:101C1000900000202DE9F041474D484E484F88B0D4
:101C2000686870800024708839880840800507D56E
:101C30004FF6FF5068603078401C307000F0C1F8FB
:101C4000708839880840000448BFFFF743FF708858
:101C5000398808404FF6FF38400504D53948C5F8A3
:101C6000048040688047388871880140890444BFF7
:101C70004DF6FF71696071880840C00405D54EF6C5
:101C8000FF7068600020FFF7B5FE70883988084053
:101C900000050BD52C48007810B1FFF74AFE02E092
:101CA0000220FFF7A7FE4FF2FF7068607088398846
:101CB0000840C0053CD54FF6FF606860A868000486
:101CC00031D57068401C7060706804282DD3286876
:101CD00000072AD4286880B2B06000A91B4850F8D9
:101CE000242092B241F82420641C082CF7D3B26857
:101CF00042F00102B260B26892B22A60B268520841
:101D00005200B260B26892B22A606A685205FCD58D
:101D1000C5F80480002451F8242092B240F8242011
:101D2000641C082CF7D3002070600720FFF762FEC8
:101D300008B0BDE8F08100BF405C0040BC09002055
:101D4000E80900200000002010010020005C004095
:101D500023480178012900D0704738B521490A6825
:101D600012B90021017031BD412A1F4803681D4688
:101D700003D340244033403A02E01446D3180022F3
:101D800003600A60ADB21948A2B2C0212818FEF75C
:101D900096FEA1B20120FEF73CFEBDE832400120D4
:101DA000FEF7DDBD10B5124C21460320FFF780FE83
:101DB000C1B22046FFF791F9BDE810400320FEF7BD
:101DC000DABD0C480068052809D10B4801684A1C97
:101DD0000260052903D100210160FEF760BF704752
:101DE000AC090020B8090020B4090020140100202B
:101DF00014090020E4090020DC090020120100027F
:101E00000200004083044057000201020301000069
:101E100009024300020100C032090400000102026D
:101E20000100052400100105240100010424020220
:101E30000524060001070582030800FF09040100CC
:101E4000020A0000000705030240000007058102A6
:101E500040000000040309042603530054004D0011
:101E60006900630072006F0065006C00650063002C
:101E7000740072006F006E00690063007300000060
:101E80003203530054004D0033003200200056004E
:101E9000690072007400750061006C00200043004E
:101EA0004F004D00200050006F00720074002000B1
:101EB000200000007047FEE7FEE7FEE7FEE7704700
:101EC000704770477047FFF7A5BE10B5094C40F248
:101ED00025512046FFF789FB08B1FEF718FF0821BE
:101EE0002046FFF77BFB20B12046BDE81040FFF7FE
:101EF00071BB10BD003801404FF48020FFF73CBAA1
:101F000010B5074979441831064C7C44163404E076
:101F10000A68081D511888470146A142F8D110BD32
:101F20000800000028000000DFEBFFFFDC080000D5
:101F3000140100200000000087E9FFFF14010000E9
:101F40007401000000000020000000000448054A61
:101F5000C0610221017242620349016208680047C0
:101F600054090020300000200000002080B5FEF75A
:101F7000D3FFFEF7D9FDFEF7F8FDFEF70DFEFFF7E4
:101F8000E5FFFFF7A9F8FCE700F009F8002801D009
:101F9000FFF7B6FF0020FFF7E9FF00F002F801208D
:101FA000704700F001B800000746384600F002F81C
:101FB000FBE7000080B5C046C046024A1100182069
:101FC000ABBEFBE7260002000148804701480047FE
:101FD00089130008D91F0008C046C046C046C04645
:101FE000FFF7D2FFFFF766BFFFF765BFFFF764BFDC
:101FF000FFF763BFFFF762BFFFF761BFFFF760BF87
:10200000FFF75FBFFFF75EBFFFF7FEBFFFF7FEBF43
:10201000FFF7FEBFFFF7FEBFFFF7FEBFFFF7FEBFF4
:10202000FFF7FEBFFFF7FEBFFFF7FEBFFFF7FEBFE4
:10203000FFF7FEBFFFF7FEBFFFF7FEBFFFF7FEBFD4
:10204000FFF7FEBFFFF7FEBFFFF7FEBFFFF7FEBFC4
:10205000FFF7FEBFFFF7FEBFFFF735BFFFF7FEBF7D
:10206000FFF7FEBFFFF7FEBFFFF7FEBFFFF7FEBFA4
:10207000FFF7FEBFFFF7FEBFFFF7FEBFFFF7FEBF94
:10208000FFF7FEBFFFF7FEBFFFF7FEBFFFF7FEBF84
:10209000FFF7FEBFFFF7FEBFFFF7FEBFFFF715BF5D
:1020A000FFF7FEBFFFF7FEBFFFF7FEBFFFF7FEBF64
:1020B000FFF722BFED1600080F170008FB170008F6
:1020C0000F1800081118000867180008BD1800084C
:1020D000991800089F180008A518000800000000C3
:1020E00040000000BD080008E5170008BD08000812
:1020F000BD080008BD080008BD080008BD080008AC
:10210000BD080008F3170008541E00080400000072
:10211000581E000826000000801E00083200000043
:10212000740000201A0000001A03530054004D00F0
:10213000330032000000000000000000000000003A
:1021400000000000511D0008BD080008BD0800087F
:10215000BD080008BD080008BD080008BD0800084B
:10216000BD080008BD080008A51D0008BD0800083E
:10217000BD080008BD080008BD080008003801407F
:1021800000440040000801400014014000080140E4
:1021900000140140000000000102030401020304D6
:1021A000060708090204060800C201000000080032
:1021B000FC1D000812000000101E00084300000073
:0821C000040100000100000011
:0400000508001FD9F7
:00000001FF
