:020000040000FA
:0C000000A0B00020090200002502000052
:020000040000FA
:10010000486F6E436F6D6D497370417070536967CE
:1001100020563000000000009966AA550200000039
:1001200053544D333246313033585858580000003C
:1001300000000000000000000000000000000000BF
:1001400053544D6963726F656C656374726F6E6949
:1001500063730000000000000000000000000000C9
:1001600053616D706C652050726F6A656374000036
:10017000000000000000000000000000000000007F
:1001800000F002F800F030F80CA030C8083824184D
:100190002D18A246671EAB4654465D46AC4201D1BF
:1001A00000F022F87E460F3E0FCCB64601263342C1
:1001B00000D0FB1AA246AB46334318471413000085
:1001C000241300000023002400250026103A01D348
:1001D00078C1FBD8520700D330C100D50B607047FF
:1001E0001FB51FBD10B510BD00F03FF91146FFF758
:1001F000F7FF00F013FB00F057F903B4FFF7F2FF2D
:1002000003BC00F05BF900000A4981F308880A4842
:100210000A490B4A0260001D491EFBD109480047EC
:1002200001207047FEE7000007480849084A094BCB
:1002300070470000A0B000200000012080010000F5
:10024000704770478101000060A00020A0B000202E
:10025000A0A00020A0A00020034610B50B439B07E0
:100260000FD1042A0DD308C810C9121FA342F8D019
:1002700018BA21BA884201D9012010BD0020C0431C
:1002800010BD002A03D0D30703D0521C07E0002082
:1002900010BD03780C78401C491C1B1B07D1037848
:1002A0000C78401C491C1B1B01D1921EF1D1184631
:1002B00010BD421E5378521C002BFBD10B78491CF9
:1002C0001370521C002BF9D1704701E004C0091FC4
:1002D0000429FBD28B0701D50280801CC90700D0FE
:1002E0000270704700290BD0C30702D00270401C77
:1002F000491E022904D3830702D50280801C891E6F
:10030000E3E70022EEE70022DFE7002203098B4249
:100310002CD3030A8B4211D300239C464EE00346A4
:100320000B433CD4002243088B4231D303098B4258
:100330001CD3030A8B4201D394463FE0C3098B428E
:1003400001D3CB01C01A524183098B4201D38B01E7
:10035000C01A524143098B4201D34B01C01A52418A
:1003600003098B4201D30B01C01A5241C3088B42CF
:1003700001D3CB00C01A524183088B4201D38B00BA
:10038000C01A524143088B4201D34B00C01A52415C
:10039000411A00D201465241104670475DE0CA0F33
:1003A00000D04942031000D34042534000229C46F3
:1003B00003098B422DD3030A8B4212D3FC228901FD
:1003C00012BA030A8B420CD3890192118B4208D3D3
:1003D000890192118B4204D389013AD0921100E035
:1003E0008909C3098B4201D3CB01C01A5241830949
:1003F0008B4201D38B01C01A524143098B4201D376
:100400004B01C01A524103098B4201D30B01C01AA0
:100410005241C3088B4201D3CB00C01A524183081A
:100420008B4201D38B00C01A5241D9D243088B4270
:1004300001D34B00C01A5241411A00D20146634613
:1004400052415B10104601D34042002B00D5494277
:10045000704763465B1000D3404201B50020C046A0
:10046000C04602BD704770477047754600F022F8DD
:10047000AE46050069465346C008C000854618B020
:1004800020B5FFF7D1FE60BC00274908B64600261C
:10049000C0C5C0C5C0C5C0C5C0C5C0C5C0C5C0C534
:1004A000403D49008D4670470446C046C046204640
:1004B000FFF7A3FE0048704700A000200149182064
:1004C000ABBEFEE7260002007047000010B50A46EA
:1004D00084B264211046FFF718FF08062102401875
:1004E00001498430884710BDC1000120F8B5114E84
:1004F0000C4607460025002001E0BF1B401CB74208
:10050000FBD20146294305D0C0B200F0D9FF2070CC
:10051000641C6D1C0A213046FFF7F7FE06460128D1
:10052000E9D8F8B200F0CCFF2070681C002161709F
:10053000F8BD000000CA9A3B30B5A3B00546402282
:10054000224B02A9002098470024E443002802DA45
:10055000204623B030BD0E98012180024902884216
:1005600002D20120C043F4E7184B4022002002A928
:1005700020339847002802DA0220C043E9E7134BF2
:100580000221224602A8803398470499814217D05D
:100590000D21C9060E4C0020A04700210DA0A04748
:1005A0000B49002008318847012802D00320C043AE
:1005B000CFE7002000900190684600F045F8C8E7BA
:1005C0000298039903C50020C3E70000010201203F
:1005D00001010120D7D4B6AFD4F6C1BFD0A3D1E971
:1005E000B4EDCEF32CB0B431BCFCB3F5CABCBBAF98
:1005F0000D0A000030B5002203E0835C002B02D01E
:10060000521C8A42F9D38A420AD230240023521C57
:1006100003E0C55CC4542C465B1C9342EBD8F8E75E
:1006200030BD000070B505468120064C8000A04713
:100630007D20C0000349684360318847E014A0472B
:1006400070BD00002100012030B5A1B00546402258
:100650001A4B6946002098470024E443002802DA38
:10066000204621B030BD0C98012180024902884209
:1006700002D20120C043F4E7104B4022002069461B
:1006800020339847002802DA0220C043E9E703CD6F
:1006900001910A4B00900221224668468033984718
:1006A0000290064B402200206946283398470028D4
:1006B00002DA0320C043D4E70020D2E70102012080
:1006C000F0B589B0054602A800240F4626460190E1
:1006D000280F0CD12D01761C072EF9DB07E0280F1F
:1006E00000F0EEFE01992D010855641C761C082EC1
:1006F000F5DB0198002101553802050F3803BF05CD
:10070000860DBF0D002D06D0AC4204D2294602A8AA
:10071000FFF770FF2C46B0026105C0194908411867
:10072000024A02A89047204609B0F0BD010101200D
:10073000F0B585B00E466946FFF7D8FE0446300294
:10074000050F3003B605870DB60D002D06D0AC425F
:1007500004D229466846FFF74DFF2C46B8026105D2
:10076000801949084118034A68469047204605B059
:10077000F0BD000001010120F3B50801060E0803D9
:100780008DB0800D09908805800D00250A903DE010
:10079000082003902818B04201D9701B03900398D9
:1007A0000024470014E0E00F0019401041190D9893
:1007B00008180C900078000900F082FE05A9085581
:1007C0000C98007800F07CFE05A909194870A41C5B
:1007D000A742E8D80998104A8005010B0A988005BD
:1007E000800D081879054908411805A89047039815
:1007F0000101099808180990802805D30A9810303B
:100800000A9009988038099003982D18B542BFD3F3
:1008100030460FB0F0BD000001010120F0B52D48B9
:1008200085B080470021C94300902B4D0020A84788
:1008300000212AA0A84720212FA0A847402132A0AC
:10084000A847254F00200837B8470646FF20224C0E
:100850008A30403CA0470520A0470020A0473848E8
:10086000A0473848A0473848A0473848A0473848EC
:10087000A04732213748FFF729FE3748A047022E0C
:1008800005D100F077F80090002005B0F0BD3046AB
:1008900000F0EAF90090002818DA5021FF20FFF755
:1008A00015FE0D21C9060020A84700212BA0A8474E
:1008B000009801A94042FFF719FE2D4901A8A84759
:1008C0000020B84700BE0020C043DEE70028DED18C
:1008D000DBE70000010001200101012053544D33EA
:1008E00032B4AEBFDACFC2D4D8D1DDCABE2D4B658B
:1008F000696C4D444B0D0A00BFAACABCB4AEBFDA46
:10090000CFC2D4D80D0A0000C7EBB0B431BCFCBFD5
:10091000AACABCD2BBB4CEC9D5C2BCA3ACB0B43099
:10092000BFAACABCD1ADBBB7C9D5C2BCA3ACB0B419
:1009300032BFAACABCB6C1C8A1D0BEC6AC0D0A009F
:100940000308000082E40C008164000080B80B0002
:10095000833AC810555500008505000053544D33A7
:1009600032B4AEBFDACFC2D4D8B3F6B4ED0D0A00BC
:100970004000A000F0B50D27FF06FFB07A4C8AB00A
:1009800039460020A04750210020FFF79FFD764DFB
:100990000020B03DA847E12641207349B602C000BF
:1009A000A83988473046A8476420FFF73BFE00215E
:1009B0006EA0A04773493046FFF7BAFE202172A00F
:1009C000A0477349714888470026F643002803DA98
:1009D00030467FB00AB0F0BD6E490020A0473946CE
:1009E0000020A04700216CA0A0475F4878388047CE
:1009F0006749009001A810318847002802DA0120D9
:100A0000C043E6E7624901A818318847002802DAA6
:100A10000220C043DDE75E4901A820318847002855
:100A200002DA0320C043D4E70120594DC006082252
:100A300001A92835A84700280ADA401C02D0042062
:100A4000C043C6E739460020A04760215AA00CE009
:100A50004F4B082201A9604828339847050006D566
:100A600039460020A04760215CA0A047B0E7684657
:100A700080883D4C87025F490020A04760215EA02E
:100A8000A04770213846FFF753FE261531465FA078
:100A9000A04760493846FFF713FE31463AA0A04709
:100AA000604A5DA13846904731465FA0A0472E4B73
:100AB00030220020394610339847002431E00026C8
:100AC00001A881190120A219C0061018304B8022FC
:100AD00028339847050026D40120400280368642FC
:100AE000EED3504A600A01A90832904705001AD493
:100AF000A00513D11C4E811EB047A00A81A9FFF7A3
:100B0000F5FC4EA181A8FFF7D4FB102181A8B047C6
:100B1000154B30223946204610339847FF34FF34B6
:100B20000234BC42CBD3104B302239460846103336
:100B30009847002D16DB312149060B4C0020A047B9
:100B4000002142A0A0470848783880470099401A01
:100B500081A9FFF7CBFC41A181A8FFF7AAFB4021A7
:100B600081A8A047002034E701010120BFAACABC28
:100B7000C1ACBDD3D0BEC6AC2E2E2E206270733A4F
:100B80000000000010C000000D0A000088130000E3
:100B900001040120066400FE53544D3332414E33AC
:100BA0003135355F436F6E6E6563744368697020DD
:100BB0004F6B0D0A00000000D0BEC6ACD2D1C9E810
:100BC000D6C3B6C1B1A3BBA4A3ACCEDEB7A8B6C191
:100BD000B3F60D0A00000000E0F7FF1FB6C1D0BE5B
:100BE000C6AC466C617368B4F3D0A1CAA7B0DC0D83
:100BF0000A00000060000062D0BEC6ACB4F3D0A111
:100C0000284279746573293A000000002030783A50
:100C1000000000007000010053544D33324D454D2B
:100C200042494E00410201205374617274205265A2
:100C3000616420436869703A0D0A00004B422052FB
:100C400065616465642121210D0A0000D0BEC6AC37
:100C5000B6C1C8A1CDEAB1CF0D0A00006D732C4119
:100C60006C6C204F6B0D0A00F1B5FFB095B0002001
:100C70008090819080A8FFF75FFC002803DAFE488F
:100C80007FB016B0F0BD80A8839092A80D210824F3
:100C9000C9068790FA4EF94D0020B0475021002038
:100CA000FFF714FCF64F0020B03FB8474120F4494D
:100CB000C000A8398847E1208002B8476420FFF7C8
:100CC000B1FC0021EFA0B047E120F4498002FFF71A
:100CD0002FFD2021F2A0B047F349F24888470028B1
:100CE00002DA0020C043CBE7F0490020B0470D21D5
:100CF000C9060020B0470021EDA0B047E048783891
:100D00008047E9498990684610318847002802DA0F
:100D10000120C043B4E7E4496846077A18318847A0
:100D2000002802DA0220C043AAE7DF4968462031E2
:100D30008847002802DA0320C043A1E70120DA4BEC
:100D4000C0060822694628339847002819DA401C53
:100D500002D00420C04393E76021DDA0B047D24910
:100D6000002068318847002802DA1E20C04387E748
:100D70007D20CD49C0008847002835DA1F20C043B8
:100D80007EE7432F05D0442F10D0D749D7A0B047D6
:100D9000A7E76021DCA0B047C34A6946DF4840327C
:100DA000904700280FDA0A20C04369E76021DCA0E1
:100DB000B047BD4A6946D94848329047002802DA10
:100DC0000B20C0435CE7B84858308047002802DA5F
:100DD0000C20C04354E77D20B349C0008847002859
:100DE00002DA0D20C0434BE70D21C9060020B047B1
:100DF0000021D0A0B047AC4B0C226946D148283323
:100E00009847002806DAB849CFA04039B0470E20ED
:100E1000C04335E79A4E2021D6A0B047DC4968464A
:100E2000FFF7AAFCDB499EA0B0470D21C9060020B0
:100E3000B0474022D84B69460020984707466021BA
:100E4000D6A0B047D8498198FFF73AFCD749809897
:100E5000FFF736FC802192A0B0470021D4A0B04714
:100E6000002F77DB09988690089F854B3022002061
:100E7000394610339847002662E0B91BFF20013045
:100E80008291814200D982908698C34B80198490C8
:100E900069460833829A9847002807DA9249784AC7
:100EA0002039C7A090473C20C043E9E668468499B2
:100EB000859082988C4608188890854217D2291907
:100EC000614514D3002010E0291861450CD3889A9D
:100ED000914209D26246891A859A535C879A1354C3
:100EE000839A135C859A5354401C8442ECD86E4B11
:100EF00069463833829A84989847002807DA012196
:100F00005F4AC907B4A090473D20C043B8E6B0058A
:100F100014D15B4A811E9047B00A8AA9FFF7E6FA0E
:100F2000B2A18AA8FFF7C5F9554A10218AA89047AF
:100F3000534B302239463046103398478298361842
:100F4000BE429AD34E4B302239460846103398475A
:100F5000002100E07AE14A4EA8A0B0471921890695
:100F60000020B0470021AAA0B047454B3022002006
:100F700039461033984700265FE0B91BFF20013047
:100F80008291814200D982908698474B8019849043
:100F900069462833829A9847002802DA3E20C043E7
:100FA0006EE668468499859082988C4608188890E9
:100FB00085421ED2291961451BD3002012E0291851
:100FC00061450ED3889A91420BD2839A135C624694
:100FD000891A859A525C934208D1879A859B125C44
:100FE0005A54401C8442EAD8002802DA4020C04308
:100FF00046E6694B69461833829A849898470028D8
:1010000002DA3F20C0433BE6B00514D11C4A811EE2
:101010009047B00A8AA9FFF769FA81A18AA8FFF769
:1010200048F9174A10218AA89047154B30223946B3
:1010300030461033984782983618BE429DD3104BE5
:1010400030223946084610339847632109060C4E72
:101050000020B047002177A0B04720216846FFF765
:1010600052F9114B224628466946283398470028F2
:1010700000DAE9E0F2E0000017FCFFFF00010008E1
:1010800001010120BFAACABCC1ACBDD3D0BEC6AC51
:101090002E2E2E206270733A0000000010C0000057
:1010A0000D0A00008813000001040120066400FE00
:1010B00053544D3332414E333135355F436F6E6E8D
:1010C00065637443686970204F6B0D0A000000006F
:1010D000556E4C6F636B20616E6420457261736561
:1010E00020436869700D0A006000008046756C6CD2
:1010F000204572617365204368697020436D6420E8
:1011000045726F720D0A000046756C6C2045726165
:101110007365204368697034330D0A00FFFF0000D7
:1011200046756C6C20457261736520436869703444
:10113000340D0A0045726173652043686970204F61
:101140006B0D0A00E8F7FF1FB6C1D0BEC6ACCEA833
:10115000D2BBD0F2C1D0BAC5CAA7B0DC20526561FB
:10116000642043686970554944204661696C2E2E9D
:101170002E0D0A00D0BEC6ACCEA8D2BBD0F2C1D0D4
:10118000BAC520436869705549442E2E2E0D0A00B9
:101190004000C0006000200001020120D7D4B6AF9B
:1011A000D4F6C1BF3A0000007000800070008100DA
:1011B000577269746520466C6173682E2E0D0A00A3
:1011C000526561645365676D656E74446174612036
:1011D0004572726F720D0A00577269746520466C11
:1011E000617368204572726F720D0A004B4220577E
:1011F00072697465642121210D0A000057726974B7
:101200006520466C617368204F6B0D0A000000007A
:101210005374617274205665726966790D0A000014
:101220004B422056657269667965642121210D0A59
:101230000000000056657269667920466C6173682B
:10124000204F6B0D0A0000005C4819E50121634A3C
:10125000C9075BA090476420C04311E50D21C90672
:101260000020B0470121C9058398FFF785FA5C4942
:101270006846FFF781FA224669468398FEF7ECFF3D
:10128000564C0834002810D0402156A0B04700200A
:10129000A0474022584B694601209847002839DB77
:1012A000099883900024089F21E0402153A0B04773
:1012B0007D20C000ECE73D1B102D00D91025839840
:1012C0004D4B00192A4669460833829098470028FA
:1012D00002DA4220C043D3E44D4B2A466946829845
:1012E0009847002802DA4320C043C9E46419BC428D
:1012F000E1D3002147A0B04780988199401C00228B
:1013000051418090819180A8FFF79EF9002808DA6A
:101310004748B5E40121C90746A0B0476520C0434E
:10132000AEE480A8FFF708F9002802DA4048401E22
:10133000A6E40D21C9060020B047602144A0B047B3
:10134000274981985031FFF7BBF944498098FFF74E
:10135000B7F9802142A0B047FF2050210002FFF7DB
:10136000B5F840490020B047949801281DD01B488B
:10137000783880478999401A8AA9FFF7B7F83AA1C7
:101380008AA8FEF796FF40218AA8B047502139A0CD
:10139000B04700213BA0B047FF201D49F530303950
:1013A0008847002805DA00206AE440213BA0B047C6
:1013B000F9E700213DA0B047012061E494DFFFFF81
:1013C0004F70656E205365676D656E7420302045E3
:1013D00072726F722E2E2E0D0A0000000101012084
:1013E000200080000D0AD7D4B6AFD4F6C1BFB4ED4B
:1013F000CEF30D0A00000000010201200D0AD7D42F
:10140000B6AFD4F6C1BFD5FDC8B70D0A00000000C5
:10141000390401205772697465204F7074696F6ECA
:101420004279746573204F6B2E2E2E0D0A0000003A
:1014300016FCFFFF4F70656E205365676D656E7417
:101440002031204572726F722E2E2E0D0A00000080
:10145000D0C2D7D4B6AFD4F6C1BF3A007000810075
:101460000D0A0000086400FE6D732C416C6C204F67
:101470006B0D0A00D1ADBBB7C9D5C2BCC4A3CABDF0
:101480000D0A0000BFAACABCBCECB2E2D0BEC6AC1A
:10149000B5C4D2C6B3FD2E2E2E0D0A00B5A5B4CE0E
:1014A000C9D5C2BCB3C9B9A60D0A0000BCECB2E2F2
:1014B000B5BDD0BEC6ACD2D1D2C6B3FD0D0A0000B8
:1014C0000007000F092801D93730704730307047C6
:1014D000E014000000A00020A0100000C4010000E3
:020000040001F9
:1000000055AA1234567889AB123600000000000061
:1000100000000000000000000000000000000000E0
:1000200000000000000000000000000000000000D0
:1000300000000000000000000000000000000000C0
:1000400000000000000000000000000000000000B0
:1000500000000000000000000000000000000000A0
:100060000000000000000000000000000000000090
:100070000000000000000000000000000000000080
:100080000000000000000000000000000000000070
:100090000000000000000000000000000000000060
:1000A0000000000000000000000000000000000050
:1000B0000000000000000000000000000000000040
:1000C0000000000000000000000000000000000030
:1000D0000000000000000000000000000000000020
:1000E0000000000000000000000000000000000010
:1000F0000000000000000000000000000000000000
:100100006170703066756E6320D1DDCABEB4FAC20C
:10011000EB0D0A006170703066756E6320D1DDCA28
:0C012000BEB4FAC2EB320D0A0000000071
:040000050000018175
:00000001FF
:020000040800F2
:0C00000000104020D5030008F1030008A8
:020000040800F2
:10020000486F6E436F6D6D4C6F61646572536967C3
:100210002056300000000000000000000000000038
:1002200053544D333246313033585858580000003B
:1002300000000000000000000000000000000000BE
:1002400053544D6963726F656C656374726F6E6948
:1002500063730000000000000000000000000000C8
:1002600053616D706C652050726F6A656374000035
:10027000000000000000000000000000000000007E
:10028000000000000000000000000000000000006E
:10029000000000000000000000000000000000005E
:1002A000000000000000000000000000000000004E
:0802B000000000000000000046
:020000040800F2
:10030000666C6173680000000000000000000000DF
:1003100000000000000000000000000000000000DD
:10032000FF00000000000008000020005104000849
:1003300004000000000000000000000000000000B9
:100340006F7074696F6E62797465730000000000ED
:10035000000000000000000000000000000000009D
:10036000FF00000000F8FF1F1000000091040008CB
:10037000020000000000000000000000000000007B
:10038000000000000000000000000000000000006D
:10039000000000000000000000000000000000005D
:1003A000000000000000000000000000000000004D
:1003B000000000000000000000000000000000003D
:1003C0000348854600F032F800480047D50500088C
:1003D00000104020074981F3088807480749084A68
:1003E0000260001D491EFBD10648004701207047EE
:1003F000FEE7000000104020000001208001000006
:1004000070477047C1030008D2B201E00270401C7F
:10041000491EFBD270470022F6E710B513460A4684
:1004200004461946FFF7F0FF204610BD064C012593
:10043000064E05E0E36807CC2B430C3C984710348C
:10044000B442F7D3FFF7C0FF700800088008000827
:10045000014600207047F8B504460F4600250026E7
:1004600005E0200F002800D003E02401761C072EB1
:10047000F7DB00BF06E0200F00F0ECF978556D1CAB
:100480002401761C082EF6DB002078552846F8BD9E
:1004900001460020704770B502460B4618E0002068
:1004A00000BF04E0115C002900D102E0401C98422A
:1004B000F8D300BF984200D30BE03024002103E0C2
:1004C000555C54542C46491C461CB142F8D900BF17
:1004D000E5E700BF70BD0000F0B5A3B0054602A877
:1004E0000190402200201D4B019998470446002CA2
:1004F00003DA0020C04323B0F0BD0198006B8602F0
:1005000001204002864202D20120C043F3E740228C
:1005100002A90020114B203398470446002C02DA30
:100520000220C043E7E7696828680391029000222F
:10053000D243022102A8094B80339847074604970B
:10054000402202A90020054B283398470446002C7E
:1005500002DA0320C043CEE70020CCE701020120ED
:10056000F3B585B00C4601A90598FFF774FF064660
:100570002002050F2003870DA005800D0090002D9F
:1005800006D0AE4204D2294601A8FFF784FF2E46CA
:10059000B805020B00988005800D101872055208EE
:1005A000811801A8024A9047304607B0F0BD00000C
:1005B0000101012002E008C8121F08C1002AFAD177
:1005C00070477047002001E001C1121F002AFBD1D3
:1005D00070470000F0B5E3B000213CA0454A9047C9
:1005E000402223A90120444B9847229022980028BA
:1005F00003DA002141A03F4A904723AD6E6A2F6A7B
:100600004A48864203D0002149A03A4A9047102F19
:1006100003D2002155A0374A9047102223A9304623
:10062000354B08339847002807DA00215DA0314A8E
:1006300090470520C04363B0F0BD20A8007BA528EB
:1006400004D1002162A02B4A904703E0002169A059
:10065000284A9047002170A0264A9047202208216E
:100660006846FFF7D1FE002413E023A9095D0811B5
:1006700000F0F0F801466000801C6A46115423A97E
:10068000085D00F0E7F801466000C01C6A4611549E
:10069000641C102CE9DB67496846164A9047664996
:1006A00000202091219020A8FFF716FF002163A0D1
:1006B000104A904700212098FFF752FF00210CA01C
:1006C0000C4A904700BE0020B5E70000202053549C
:1006D0004D3332B4AEBFDACFC2D4D82DB4FAC2EBA8
:1006E000D7B0D4D8D1DDCABE2D4B65696C4D444B13
:1006F0000D0A000001010120010201202020D7B0D5
:10070000D4D8D1A1CFEED7D6BDDAB4EDCEF32C43F9
:100710006865636B204F7074696F6E42797465739E
:10072000204572726F720D0A0000000000F8FF1F72
:100730002020D7B0D4D8D1A1CFEED7D6BDDAB4ED32
:10074000CEF32C4F7074696F6E42797465732045D7
:1007500072726F7220537461727441646472657353
:1007600073204572726F720D0A0000002020D7B00E
:10077000D4D8D1A1CFEED7D6BDDAB4EDCEF32C4F7D
:100780007074696F6E4279746573204572726F720E
:10079000206C6F6164656473697A65204572726F5D
:1007A000720D0A002020D7B0D4D8D1A1CFEED7D671
:1007B000BDDAB4EDCEF32C52656164204F707469DC
:1007C0006F6E4279746573204572726F720D0A0004
:1007D0002020B6C1B1A3BBA4CEB4BFAAC6F42C528C
:1007E0004450206973204E6F204163746976650D13
:1007F0000A0000002020B6C1B1A3BBA4D2D1BFAA79
:10080000C6F42C5244502069732053657420416310
:10081000746976650D0A00002020D1A1CFEED7D6ED
:10082000BDDA4F7074696F6E42797465733A0D0A60
:100830000000000002000002AA5500000D0A20205E
:10084000D2D1B3F5CABCBBAFD7D4B6AFD4F6C1BF13
:100850003A00000001460907090F092903DD08468F
:100860003730C0B2704708463030C0B2FAE70000F7
:10087000800800080000402000100000C4050008A7
:04000005080003C12B
:00000001FF
