:020000040000FA
:0C000000A0B00020090200002502000052
:020000040000FA
:10010000486F6E436F6D6D497370417070536967CE
:1001100020563000000000009966AA550200000039
:1001200053544D333246313033585858580000003C
:1001300000000000000000000000000000000000BF
:1001400053544D6963726F656C656374726F6E6949
:1001500063730000000000000000000000000000C9
:1001600053616D706C652050726F6A656374000036
:10017000000000000000000000000000000000007F
:1001800000F002F800F030F80CA030C8083824184D
:100190002D18A246671EAB4654465D46AC4201D1BF
:1001A00000F022F87E460F3E0FCCB64601263342C1
:1001B00000D0FB1AA246AB4633431847BC0F0000E1
:1001C000CC0F00000023002400250026103A01D3A4
:1001D00078C1FBD8520700D330C100D50B607047FF
:1001E0001FB51FBD10B510BD00F03FF91146FFF758
:1001F000F7FF00F0EFFA00F057F903B4FFF7F2FF52
:1002000003BC00F05BF900000A4981F308880A4842
:100210000A490B4A0260001D491EFBD109480047EC
:1002200001207047FEE7000007480849084A094BCB
:1002300070470000A0B000200000012080010000F5
:10024000704770478101000060A00020A0B000202E
:10025000A0A00020A0A00020034610B50B439B07E0
:100260000FD1042A0DD308C810C9121FA342F8D019
:1002700018BA21BA884201D9012010BD0020C0431C
:1002800010BD002A03D0D30703D0521C07E0002082
:1002900010BD03780C78401C491C1B1B07D1037848
:1002A0000C78401C491C1B1B01D1921EF1D1184631
:1002B00010BD421E5378521C002BFBD10B78491CF9
:1002C0001370521C002BF9D1704701E004C0091FC4
:1002D0000429FBD28B0701D50280801CC90700D0FE
:1002E0000270704700290BD0C30702D00270401C77
:1002F000491E022904D3830702D50280801C891E6F
:10030000E3E70022EEE70022DFE7002203098B4249
:100310002CD3030A8B4211D300239C464EE00346A4
:100320000B433CD4002243088B4231D303098B4258
:100330001CD3030A8B4201D394463FE0C3098B428E
:1003400001D3CB01C01A524183098B4201D38B01E7
:10035000C01A524143098B4201D34B01C01A52418A
:1003600003098B4201D30B01C01A5241C3088B42CF
:1003700001D3CB00C01A524183088B4201D38B00BA
:10038000C01A524143088B4201D34B00C01A52415C
:10039000411A00D201465241104670475DE0CA0F33
:1003A00000D04942031000D34042534000229C46F3
:1003B00003098B422DD3030A8B4212D3FC228901FD
:1003C00012BA030A8B420CD3890192118B4208D3D3
:1003D000890192118B4204D389013AD0921100E035
:1003E0008909C3098B4201D3CB01C01A5241830949
:1003F0008B4201D38B01C01A524143098B4201D376
:100400004B01C01A524103098B4201D30B01C01AA0
:100410005241C3088B4201D3CB00C01A524183081A
:100420008B4201D38B00C01A5241D9D243088B4270
:1004300001D34B00C01A5241411A00D20146634613
:1004400052415B10104601D34042002B00D5494277
:10045000704763465B1000D3404201B50020C046A0
:10046000C04602BD704770477047754600F022F8DD
:10047000AE46050069465346C008C000854618B020
:1004800020B5FFF7D1FE60BC00274908B64600261C
:10049000C0C5C0C5C0C5C0C5C0C5C0C5C0C5C0C534
:1004A000403D49008D4670470446C046C046204640
:1004B000FFF7A3FE0048704700A000200149182064
:1004C000ABBEFEE7260002007047000010B50A46EA
:1004D00084B264211046FFF718FF08062102401875
:1004E00001498430884710BDC1000120F8B5114E84
:1004F0000C4607460025002001E0BF1B401CB74208
:10050000FBD20146294305D0C0B200F02DFE207079
:10051000641C6D1C0A213046FFF7F7FE06460128D1
:10052000E9D8F8B200F020FE2070681C002161704C
:10053000F8BD000000CA9A3B30B5A3B00546402282
:10054000224B02A9002098470024E443002802DA45
:10055000204623B030BD0E98012180024902884216
:1005600002D20120C043F4E7184B4022002002A928
:1005700020339847002802DA0220C043E9E7134BF2
:100580000221224602A8803398470499814217D05D
:100590000D21C9060E4C0020A04700210DA0A04748
:1005A0000B49002008318847012802D00320C043AE
:1005B000CFE7002000900190684600F045F8C8E7BA
:1005C0000298039903C50020C3E70000010201203F
:1005D00001010120D7D4B6AFD4F6C1BFD0A3D1E971
:1005E000B4EDCEF32CB0B431BCFCB3F5CABCBBAF98
:1005F0000D0A000030B5002203E0835C002B02D01E
:10060000521C8A42F9D38A420AD230240023521C57
:1006100003E0C55CC4542C465B1C9342EBD8F8E75E
:1006200030BD000070B505468120064C8000A04713
:100630007D20C0000349684360318847E014A0472B
:1006400070BD00002100012030B5A1B00546402258
:100650001A4B6946002098470024E443002802DA38
:10066000204621B030BD0C98012180024902884209
:1006700002D20120C043F4E7104B4022002069461B
:1006800020339847002802DA0220C043E9E703CD6F
:1006900001910A4B00900221224668468033984718
:1006A0000290064B402200206946283398470028D4
:1006B00002DA0320C043D4E70020D2E70102012080
:1006C000F0B589B0054602A800240F4626460190E1
:1006D000280F0CD12D01761C072EF9DB07E0280F1F
:1006E00000F042FD01992D010855641C761C082E6E
:1006F000F5DB0198002101553802050F3803BF05CD
:10070000860DBF0D002D06D0AC4204D2294602A8AA
:10071000FFF770FF2C46B0026105C0194908411867
:10072000024A02A89047204609B0F0BD010101200D
:10073000F3B50801060E08038DB0800D09908805F9
:10074000800D00250A903DE0082003902818B04253
:1007500001D9701B039003980024470014E0E00FB8
:100760000019401041190D9808180C9000780009E4
:1007700000F0FAFC05A908550C98007800F0F4FC8C
:1007800005A909194870A41CA742E8D80998104A7D
:100790008005010B0A988005800D08187905490825
:1007A000411805A890470398010109980818099075
:1007B000802805D30A9810300A900998803809904B
:1007C00003982D18B542BFD330460FB0F0BD0000DE
:1007D00001010120F0B5294885B080470026F64385
:1007E0000090274D31460020A847002125A0A847AA
:1007F00020212BA0A84740212DA0A847204F002052
:100800000837B8470190FF201D4C8A30403CA04774
:100810000520A0470020A0472F48A0472F48A04709
:100820002F48A0472F48A0472F48A04732212F48E4
:10083000FFF74CFE2E48A047019800F067F80090A3
:10084000002818DA5021FF20FFF740FE0D21C906CD
:100850000020A847002127A0A847009801A94042EE
:10086000FFF744FE284901A8A8470020B84700BE6A
:10087000304605B0F0BD0028DED1FAE701000120C6
:100880000101012053544D3332B4AEBFDACFC2D48C
:10089000D8D1DDCABE2D4B65696C4D444B0D0A00A5
:1008A000BFAACABCB4AEBFDACFC2D4D80D0A00000A
:1008B000C7EBB0B431BCFCBFAACABCD2BBB4CEC972
:1008C000D5C2BCA3ACB0B430BFAACABCD1ADBBB713
:1008D000C9D5C2BC0D0A00000308000082E40C0068
:1008E0008164000080B80B00833AC81055550000A1
:1008F0008505000053544D3332B4AEBFDACFC2D4B5
:10090000D8B3F6B4ED0D0A004000A000F1B5D8B0A0
:1009100000204090419040A8FFF70EFE002802DA28
:10092000FE4859B0F0BD40A8439052A80D210824BC
:10093000C9064790FB4EFA4D0020B04750210020D9
:10094000FFF7C4FDF74F0020B03FB8474120F549FD
:10095000C000A8398847E1208002B8476420FFF72B
:1009600061FE0021F0A0B047E120F54F54A98002BC
:10097000FFF7BCFD40054008391854A8B0472021B6
:10098000F0A0B047F149F0488847002802DA00207B
:10099000C043C6E7EE490020B0470D21C90600203C
:1009A000B0470021EBA0B047DE4878388047E749E0
:1009B0004990684610318847002802DA0120C04378
:1009C000AFE7E2496846077A18318847002802DA1B
:1009D0000220C043A5E7DD4968462031884700284A
:1009E00002DA0320C0439CE70120D84BC00608224E
:1009F000694628339847002819DA401C02D00420A1
:100A0000C0438EE76021DBA0B047D04900206831A9
:100A10008847002802DA1E20C04382E77D20CB49A8
:100A2000C0008847002835DA1F20C04379E7432FEC
:100A300005D0442F10D0D549D5A0B047A7E76021F5
:100A4000DAA0B047C14A6946DD48403290470028E5
:100A50000FDA0A20C04364E76021DAA0B047BB4A3E
:100A60006946D74848329047002802DA0B20C04335
:100A700057E7B64858308047002802DA0C20C043B8
:100A80004FE77D20B149C0008847002802DA0D20D9
:100A9000C04346E70D21C9060020B0470021CEA083
:100AA000B047AA4B0C226946CF4828339847002804
:100AB00006DAB649CDA04039B0470E20C04330E732
:100AC000984E2021D4A0B047DA496846FFF730FE9F
:100AD000D9499CA0B0470D21C9060020B04740224B
:100AE000D64B69460020984707466021D4A0B047FE
:100AF000D6494198FFF7E4FDD5494098FFF7E0FD5E
:100B0000802190A0B0470021D2A0B047002F77DB12
:100B100009984690089F834B3022002039461033B5
:100B20009847002662E0B91BFF20013042918142C4
:100B300000D942904698C14B8019449069460833C9
:100B4000429A9847002807DA9049764A2039C5A08A
:100B500090473C20C043E4E668464499459042985B
:100B60008C4608184890854217D22919614514D33C
:100B7000002010E0291861450CD3489A914209D20F
:100B80006246891A459A535C479A1354439A135CF8
:100B9000459A5354401C8442ECD86C4B6946383318
:100BA000429A44989847002807DA01215D4AC9070C
:100BB000B2A090473D20C043B3E6B00514D1594AD6
:100BC000811E9047B00A4AA9FFF790FCB0A14AA83D
:100BD000FFF76FFB534A10214AA89047514B302230
:100BE000394630461033984742983618BE429AD359
:100BF0004C4B30223946084610339847002100E01C
:100C000078E1484EA6A0B047192189060020B047D8
:100C10000021A8A0B047434B3022002039461033B2
:100C2000984700265FE0B91BFF20013042918142C6
:100C300000D942904698454B801944906946283324
:100C4000429A9847002802DA3E20C04369E6684687
:100C50004499459042988C460818489085421ED287
:100C6000291961451BD3002012E0291861450ED3D4
:100C7000489A91420BD2439A135C6246891A459A6C
:100C8000525C934208D1479A459B125C5A54401CCF
:100C90008442EAD8002802DA4020C04341E6674B8C
:100CA00069461833429A44989847002802DA3F2050
:100CB000C04336E6B00514D11A4A811E9047B00AE7
:100CC0004AA9FFF713FC7FA14AA8FFF7F2FA154AD9
:100CD00010214AA89047134B302239463046103332
:100CE000984742983618BE429DD30E4B3022394663
:100CF000084610339847632109060A4E0020B04782
:100D0000002175A0B04720216846FFF7FCFA0F4B81
:100D100028462246694628339847E7E017FCFFFF3C
:100D20000001000801010120BFAACABCC1ACBDD3AB
:100D3000D0BEC6AC2E2E2E206270733A000000008A
:100D400010C000000D0A00008813000001040120FB
:100D5000066400FE53544D3332414E333135355F16
:100D6000436F6E6E65637443686970204F6B0D0A44
:100D700000000000556E4C6F636B20616E6420456F
:100D80007261736520436869700D0A00600000801D
:100D900046756C6C204572617365204368697020EC
:100DA000436D642045726F720D0A000046756C6CCD
:100DB000204572617365204368697034330D0A0001
:100DC000FFFF000046756C6C20457261736520431F
:100DD00068697034340D0A00457261736520436898
:100DE0006970204F6B0D0A00E8F7FF1FB6C1D0BE37
:100DF000C6ACCEA8D2BBD0F2C1D0BAC5CAA7B0DCAF
:100E000020526561642043686970554944204661F9
:100E1000696C2E2E2E0D0A00D0BEC6ACCEA8D2BB59
:100E2000D0F2C1D0BAC520436869705549442E2E0E
:100E30002E0D0A004000C0006000200001020120C9
:100E4000D7D4B6AFD4F6C1BF3A000000700080001E
:100E500070008100577269746520466C6173682E5A
:100E60002E0D0A00526561645365676D656E7444AA
:100E7000617461204572726F720D0A005772697455
:100E80006520466C617368204572726F720D0A00AE
:100E90004B42205772697465642121210D0A0000BC
:100EA000577269746520466C617368204F6B0D0A38
:100EB000000000005374617274205665726966798F
:100EC0000D0A00004B4220566572696679656421FF
:100ED00021210D0A000000005665726966792046DE
:100EE0006C617368204F6B0D0A000000002809DA5E
:100EF0005C4816E50121634AC9075BA0904764205E
:100F0000C0430EE50D21C9060020B0470121C905E7
:100F10004398FFF70DFC5C496846FFF709FC224641
:100F200069464398FFF798F9564C0834002810D0CA
:100F3000402156A0B0470020A0474022584B6946A8
:100F400001209847002839DB099843900024089F26
:100F500021E0402153A0B0477D20C000ECE73D1BBD
:100F6000102D00D9102543984D4B00192A4669468B
:100F7000083342909847002802DA4220C043D0E468
:100F80004D4B2A46694642989847002802DA43208A
:100F9000C043C6E46419BC42E1D3002147A0B04776
:100FA00040984199401C002251414090419140A8F5
:100FB000FFF74AFB002808DA4748B2E40121C907D5
:100FC00046A0B0476520C043ABE440A8FFF7B4FAA1
:100FD000002802DA4048401EA3E40D21C906002083
:100FE000B047602144A0B047274941985031FFF7EE
:100FF00067FB44494098FFF763FB802142A0B0475C
:10100000FF2050210002FFF761FA40490020B0475D
:10101000589801281DD01B48783880474999401AB4
:101020004AA9FFF763FA3AA14AA8FFF742F940211B
:101030004AA8B047502139A0B04700213BA0B04793
:10104000FF201D49F53030398847002805DA002097
:1010500067E440213BA0B047F9E700213DA0B0473D
:1010600001205EE494DFFFFF4F70656E20536567DB
:101070006D656E742030204572726F722E2E2E0DAB
:101080000A00000001010120200080000D0AD7D4D1
:10109000B6AFD4F6C1BFB4EDCEF30D0A0000000028
:1010A000010201200D0AD7D4B6AFD4F6C1BFD5FDD9
:1010B000C8B70D0A00000000390401205772697496
:1010C00065204F7074696F6E4279746573204F6B41
:1010D0002E2E2E0D0A00000016FCFFFF4F70656ECD
:1010E000205365676D656E742031204572726F7292
:1010F0002E2E2E0D0A000000D0C2D7D4B6AFD4F6E3
:10110000C1BF3A00700081000D0A0000086400FEB3
:101110006D732C416C6C204F6B0D0A00D1ADBBB7C9
:10112000C9D5C2BCC4A3CABD0D0A0000BFAACABCAF
:10113000BCECB2E2D0BEC6ACB5C4D2C6B3FD2E2E56
:101140002E0D0A00B5A5B4CEC9D5C2BCB3C9B9A687
:101150000D0A0000BCECB2E2B5BDD0BEC6ACD2D127
:10116000D2C6B3FD0D0A00000007000F092801D9FF
:1011700037307047303070478811000000A00020E1
:08118000A0100000C4010000F2
:020000040001F9
:1000000055AA1234567889AB123600000000000061
:1000100000000000000000000000000000000000E0
:1000200000000000000000000000000000000000D0
:1000300000000000000000000000000000000000C0
:1000400000000000000000000000000000000000B0
:1000500000000000000000000000000000000000A0
:100060000000000000000000000000000000000090
:100070000000000000000000000000000000000080
:100080000000000000000000000000000000000070
:100090000000000000000000000000000000000060
:1000A0000000000000000000000000000000000050
:1000B0000000000000000000000000000000000040
:1000C0000000000000000000000000000000000030
:1000D0000000000000000000000000000000000020
:1000E0000000000000000000000000000000000010
:1000F0000000000000000000000000000000000000
:100100006170703066756E6320D1DDCABEB4FAC20C
:10011000EB0D0A006170703066756E6320D1DDCA28
:0C012000BEB4FAC2EB320D0A0000000071
:040000050000018175
:00000001FF
:020000040800F2
:0C00000000104020D5030008F1030008A8
:020000040800F2
:10020000486F6E436F6D6D4C6F61646572536967C3
:100210002056300000000000000000000000000038
:1002200053544D333246313033585858580000003B
:1002300000000000000000000000000000000000BE
:1002400053544D6963726F656C656374726F6E6948
:1002500063730000000000000000000000000000C8
:1002600053616D706C652050726F6A656374000035
:10027000000000000000000000000000000000007E
:10028000000000000000000000000000000000006E
:10029000000000000000000000000000000000005E
:1002A000000000000000000000000000000000004E
:0802B000000000000000000046
:020000040800F2
:10030000666C6173680000000000000000000000DF
:1003100000000000000000000000000000000000DD
:10032000FF00000000000008000020005104000849
:1003300004000000000000000000000000000000B9
:100340006F7074696F6E62797465730000000000ED
:10035000000000000000000000000000000000009D
:10036000FF00000000F8FF1F1000000091040008CB
:10037000020000000000000000000000000000007B
:10038000000000000000000000000000000000006D
:10039000000000000000000000000000000000005D
:1003A000000000000000000000000000000000004D
:1003B000000000000000000000000000000000003D
:1003C0000348854600F032F800480047D50500088C
:1003D00000104020074981F3088807480749084A68
:1003E0000260001D491EFBD10648004701207047EE
:1003F000FEE7000000104020000001208001000006
:1004000070477047C1030008D2B201E00270401C7F
:10041000491EFBD270470022F6E710B513460A4684
:1004200004461946FFF7F0FF204610BD064C012593
:10043000064E05E0E36807CC2B430C3C984710348C
:10044000B442F7D3FFF7C0FF700800088008000827
:10045000014600207047F8B504460F4600250026E7
:1004600005E0200F002800D003E02401761C072EB1
:10047000F7DB00BF06E0200F00F0ECF978556D1CAB
:100480002401761C082EF6DB002078552846F8BD9E
:1004900001460020704770B502460B4618E0002068
:1004A00000BF04E0115C002900D102E0401C98422A
:1004B000F8D300BF984200D30BE03024002103E0C2
:1004C000555C54542C46491C461CB142F8D900BF17
:1004D000E5E700BF70BD0000F0B5A3B0054602A877
:1004E0000190402200201D4B019998470446002CA2
:1004F00003DA0020C04323B0F0BD0198006B8602F0
:1005000001204002864202D20120C043F3E740228C
:1005100002A90020114B203398470446002C02DA30
:100520000220C043E7E7696828680391029000222F
:10053000D243022102A8094B80339847074604970B
:10054000402202A90020054B283398470446002C7E
:1005500002DA0320C043CEE70020CCE701020120ED
:10056000F3B585B00C4601A90598FFF774FF064660
:100570002002050F2003870DA005800D0090002D9F
:1005800006D0AE4204D2294601A8FFF784FF2E46CA
:10059000B805020B00988005800D101872055208EE
:1005A000811801A8024A9047304607B0F0BD00000C
:1005B0000101012002E008C8121F08C1002AFAD177
:1005C00070477047002001E001C1121F002AFBD1D3
:1005D00070470000F0B5E3B000213CA0454A9047C9
:1005E000402223A90120444B9847229022980028BA
:1005F00003DA002141A03F4A904723AD6E6A2F6A7B
:100600004A48864203D0002149A03A4A9047102F19
:1006100003D2002155A0374A9047102223A9304623
:10062000354B08339847002807DA00215DA0314A8E
:1006300090470520C04363B0F0BD20A8007BA528EB
:1006400004D1002162A02B4A904703E0002169A059
:10065000284A9047002170A0264A9047202208216E
:100660006846FFF7D1FE002413E023A9095D0811B5
:1006700000F0F0F801466000801C6A46115423A97E
:10068000085D00F0E7F801466000C01C6A4611549E
:10069000641C102CE9DB67496846164A9047664996
:1006A00000202091219020A8FFF716FF002163A0D1
:1006B000104A904700212098FFF752FF00210CA01C
:1006C0000C4A904700BE0020B5E70000202053549C
:1006D0004D3332B4AEBFDACFC2D4D82DB4FAC2EBA8
:1006E000D7B0D4D8D1DDCABE2D4B65696C4D444B13
:1006F0000D0A000001010120010201202020D7B0D5
:10070000D4D8D1A1CFEED7D6BDDAB4EDCEF32C43F9
:100710006865636B204F7074696F6E42797465739E
:10072000204572726F720D0A0000000000F8FF1F72
:100730002020D7B0D4D8D1A1CFEED7D6BDDAB4ED32
:10074000CEF32C4F7074696F6E42797465732045D7
:1007500072726F7220537461727441646472657353
:1007600073204572726F720D0A0000002020D7B00E
:10077000D4D8D1A1CFEED7D6BDDAB4EDCEF32C4F7D
:100780007074696F6E4279746573204572726F720E
:10079000206C6F6164656473697A65204572726F5D
:1007A000720D0A002020D7B0D4D8D1A1CFEED7D671
:1007B000BDDAB4EDCEF32C52656164204F707469DC
:1007C0006F6E4279746573204572726F720D0A0004
:1007D0002020B6C1B1A3BBA4CEB4BFAAC6F42C528C
:1007E0004450206973204E6F204163746976650D13
:1007F0000A0000002020B6C1B1A3BBA4D2D1BFAA79
:10080000C6F42C5244502069732053657420416310
:10081000746976650D0A00002020D1A1CFEED7D6ED
:10082000BDDA4F7074696F6E42797465733A0D0A60
:100830000000000002000002AA5500000D0A20205E
:10084000D2D1B3F5CABCBBAFD7D4B6AFD4F6C1BF13
:100850003A00000001460907090F092903DD08468F
:100860003730C0B2704708463030C0B2FAE70000F7
:10087000800800080000402000100000C4050008A7
:04000005080003C12B
:00000001FF
